{"contracts/ErebrusV1.sol":{"ErebrusV1":{"abi":[{"inputs":[],"stateMutability":"nonpayable","type":"constructor"},{"inputs":[],"name":"AccessControlBadConfirmation","type":"error"},{"inputs":[{"internalType":"address","name":"account","type":"address"},{"internalType":"bytes32","name":"neededRole","type":"bytes32"}],"name":"AccessControlUnauthorizedAccount","type":"error"},{"anonymous":false,"inputs":[{"indexed":false,"internalType":"string","name":"nodeId","type":"string"},{"indexed":false,"internalType":"string","name":"data","type":"string"}],"name":"CheckpointCreated","type":"event"},{"anonymous":false,"inputs":[{"indexed":false,"internalType":"string","name":"id","type":"string"},{"indexed":false,"internalType":"string","name":"name","type":"string"},{"indexed":false,"internalType":"string","name":"nodeType","type":"string"},{"indexed":false,"internalType":"string","name":"config","type":"string"},{"indexed":false,"internalType":"string","name":"ipAddress","type":"string"},{"indexed":false,"internalType":"string","name":"region","type":"string"},{"indexed":false,"internalType":"string","name":"location","type":"string"},{"indexed":false,"internalType":"string","name":"metadata","type":"string"},{"indexed":false,"internalType":"address","name":"owner","type":"address"}],"name":"NodeRegistered","type":"event"},{"anonymous":false,"inputs":[{"indexed":false,"internalType":"string","name":"id","type":"string"},{"indexed":false,"internalType":"enum ErebrusV1.Status","name":"newStatus","type":"uint8"}],"name":"NodeStatusUpdated","type":"event"},{"anonymous":false,"inputs":[{"indexed":true,"internalType":"bytes32","name":"role","type":"bytes32"},{"indexed":true,"internalType":"bytes32","name":"previousAdminRole","type":"bytes32"},{"indexed":true,"internalType":"bytes32","name":"newAdminRole","type":"bytes32"}],"name":"RoleAdminChanged","type":"event"},{"anonymous":false,"inputs":[{"indexed":true,"internalType":"bytes32","name":"role","type":"bytes32"},{"indexed":true,"internalType":"address","name":"account","type":"address"},{"indexed":true,"internalType":"address","name":"sender","type":"address"}],"name":"RoleGranted","type":"event"},{"anonymous":false,"inputs":[{"indexed":true,"internalType":"bytes32","name":"role","type":"bytes32"},{"indexed":true,"internalType":"address","name":"account","type":"address"},{"indexed":true,"internalType":"address","name":"sender","type":"address"}],"name":"RoleRevoked","type":"event"},{"inputs":[],"name":"ADMIN_ROLE","outputs":[{"internalType":"bytes32","name":"","type":"bytes32"}],"stateMutability":"view","type":"function"},{"inputs":[],"name":"DEFAULT_ADMIN_ROLE","outputs":[{"internalType":"bytes32","name":"","type":"bytes32"}],"stateMutability":"view","type":"function"},{"inputs":[],"name":"OPERATOR_ROLE","outputs":[{"internalType":"bytes32","name":"","type":"bytes32"}],"stateMutability":"view","type":"function"},{"inputs":[{"internalType":"string","name":"","type":"string"}],"name":"checkpoint","outputs":[{"internalType":"string","name":"","type":"string"}],"stateMutability":"view","type":"function"},{"inputs":[{"internalType":"string","name":"nodeId","type":"string"},{"internalType":"string","name":"data","type":"string"}],"name":"createCheckpoint","outputs":[],"stateMutability":"nonpayable","type":"function"},{"inputs":[{"internalType":"bytes32","name":"role","type":"bytes32"}],"name":"getRoleAdmin","outputs":[{"internalType":"bytes32","name":"","type":"bytes32"}],"stateMutability":"view","type":"function"},{"inputs":[{"internalType":"bytes32","name":"role","type":"bytes32"},{"internalType":"address","name":"account","type":"address"}],"name":"grantRole","outputs":[],"stateMutability":"nonpayable","type":"function"},{"inputs":[{"internalType":"bytes32","name":"role","type":"bytes32"},{"internalType":"address","name":"account","type":"address"}],"name":"hasRole","outputs":[{"internalType":"bool","name":"","type":"bool"}],"stateMutability":"view","type":"function"},{"inputs":[{"internalType":"uint256","name":"","type":"uint256"}],"name":"nodeIds","outputs":[{"internalType":"string","name":"","type":"string"}],"stateMutability":"view","type":"function"},{"inputs":[{"internalType":"string","name":"","type":"string"}],"name":"nodes","outputs":[{"internalType":"string","name":"id","type":"string"},{"internalType":"address","name":"user","type":"address"},{"internalType":"string","name":"name","type":"string"},{"internalType":"string","name":"nodeType","type":"string"},{"internalType":"string","name":"config","type":"string"},{"internalType":"string","name":"ipAddress","type":"string"},{"internalType":"string","name":"region","type":"string"},{"internalType":"string","name":"location","type":"string"},{"internalType":"string","name":"metadata","type":"string"},{"internalType":"address","name":"owner","type":"address"},{"internalType":"enum ErebrusV1.Status","name":"status","type":"uint8"},{"internalType":"bool","name":"exists","type":"bool"}],"stateMutability":"view","type":"function"},{"inputs":[{"internalType":"string","name":"id","type":"string"},{"internalType":"string","name":"name","type":"string"},{"internalType":"string","name":"nodeType","type":"string"},{"internalType":"string","name":"config","type":"string"},{"internalType":"string","name":"ipAddress","type":"string"},{"internalType":"string","name":"region","type":"string"},{"internalType":"string","name":"location","type":"string"},{"internalType":"string","name":"metadata","type":"string"},{"internalType":"address","name":"_owner","type":"address"}],"name":"registerNode","outputs":[],"stateMutability":"nonpayable","type":"function"},{"inputs":[{"internalType":"bytes32","name":"role","type":"bytes32"},{"internalType":"address","name":"callerConfirmation","type":"address"}],"name":"renounceRole","outputs":[],"stateMutability":"nonpayable","type":"function"},{"inputs":[{"internalType":"bytes32","name":"role","type":"bytes32"},{"internalType":"address","name":"account","type":"address"}],"name":"revokeRole","outputs":[],"stateMutability":"nonpayable","type":"function"},{"inputs":[{"internalType":"bytes4","name":"interfaceId","type":"bytes4"}],"name":"supportsInterface","outputs":[{"internalType":"bool","name":"","type":"bool"}],"stateMutability":"view","type":"function"},{"inputs":[{"internalType":"string","name":"id","type":"string"},{"internalType":"enum ErebrusV1.Status","name":"newStatus","type":"uint8"}],"name":"updateNodeStatus","outputs":[],"stateMutability":"nonpayable","type":"function"}],"evm":{"bytecode":{"linkReferences":{},"object":"608060405234801561001057600080fd5b5061003b7fa49807205ce4d355092ef5a8a18f56e8913cf4a201fbe287825b095693c217753361006c565b506100667f97667070c54ef182b0f5858b034beac1b6f3089aa2d3188bb1e8929f4fa9b9293361006c565b50610118565b6000828152602081815260408083206001600160a01b038516845290915281205460ff1661010e576000838152602081815260408083206001600160a01b03861684529091529020805460ff191660011790556100c63390565b6001600160a01b0316826001600160a01b0316847f2f8788117e7eff1d82e926ec794901d17c78024a50270940304540a733656f0d60405160405180910390a4506001610112565b5060005b92915050565b611727806101276000396000f3fe608060405234801561001057600080fd5b50600436106100f55760003560e01c806375b238fc11610097578063ca046c6211610066578063ca046c6214610216578063d547741f14610229578063f5417ca21461023c578063f5b541a61461026757600080fd5b806375b238fc146101c157806391d14854146101e857806398543166146101fb578063a217fddf1461020e57600080fd5b80632f2ff15d116100d35780632f2ff15d1461016857806336568abe1461017b5780635b5bf9941461018e5780636697a925146101a157600080fd5b806301ffc9a7146100fa5780631b82fd1e14610122578063248a9ca314610137575b600080fd5b61010d610108366004610f55565b61027c565b60405190151581526020015b60405180910390f35b610135610130366004611045565b61028d565b005b61015a610145366004611196565b60009081526020819052604090206001015490565b604051908152602001610119565b6101356101763660046111af565b61058c565b6101356101893660046111af565b6105b7565b61013561019c3660046111db565b6105ef565b6101b46101af36600461123f565b6106eb565b60405161011991906112cc565b61015a7fa49807205ce4d355092ef5a8a18f56e8913cf4a201fbe287825b095693c2177581565b61010d6101f63660046111af565b610790565b6101b4610209366004611196565b6107b9565b61015a600081565b6101356102243660046112df565b6107e4565b6101356102373660046111af565b6108ef565b61024f61024a36600461123f565b610914565b6040516101199c9b9a9998979695949392919061136d565b61015a6000805160206116d283398151915281565b600061028782610dd9565b92915050565b6000805160206116d28339815191526102a581610e0e565b60018a6040516102b5919061145d565b9081526040519081900360200190206009015460ff600160a81b909104161561031c5760405162461bcd60e51b81526020600482015260146024820152734e6f646520616c7265616479206578697374732160601b60448201526064015b60405180910390fd5b6040518061018001604052808b81526020016103353390565b6001600160a01b031681526020018a8152602001898152602001888152602001878152602001868152602001858152602001848152602001836001600160a01b031681526020016001600381111561038f5761038f611335565b8152600160209091018190526040516103a9908d9061145d565b908152604051908190036020019020815181906103c69082611501565b5060208201516001820180546001600160a01b0319166001600160a01b03909216919091179055604082015160028201906104019082611501565b50606082015160038201906104169082611501565b506080820151600482019061042b9082611501565b5060a082015160058201906104409082611501565b5060c082015160068201906104559082611501565b5060e0820151600782019061046a9082611501565b5061010082015160088201906104809082611501565b506101208201516009820180546001600160a01b039092166001600160a01b0319831681178255610140850151926001600160a81b03191617600160a01b8360038111156104d0576104d0611335565b0217905550610160919091015160099091018054911515600160a81b0260ff60a81b19909216919091179055600380546001810182556000919091527fc2575a0e9e593c00f959f8c92f12db2869c3395a3b0502d05e2516446f71f85b016105388b82611501565b507fb66be261a24a8510672e1e7c496eae0c1d2ce9d29eb6e048d03c6da74f0f526c8a8a8a8a8a8a8a8a8a604051610578999897969594939291906115c1565b60405180910390a150505050505050505050565b6000828152602081905260409020600101546105a781610e0e565b6105b18383610e1b565b50505050565b6001600160a01b03811633146105e05760405163334bd91960e11b815260040160405180910390fd5b6105ea8282610ead565b505050565b6000805160206116d283398151915261060781610e0e565b600183604051610617919061145d565b9081526040519081900360200190206009015460ff600160a81b909104166106815760405162461bcd60e51b815260206004820152601c60248201527f457265627275733a204e6f646520646f6573206e6f74206578697374000000006044820152606401610313565b81600284604051610692919061145d565b908152602001604051809103902090816106ac9190611501565b507fd67d1994a0f3d42767c76ed3d9c8d88e3488034af6f2b3609baebf227a4602be83836040516106de929190611681565b60405180910390a1505050565b80516020818301810180516002825292820191909301209152805461070f90611479565b80601f016020809104026020016040519081016040528092919081815260200182805461073b90611479565b80156107885780601f1061075d57610100808354040283529160200191610788565b820191906000526020600020905b81548152906001019060200180831161076b57829003601f168201915b505050505081565b6000918252602082815260408084206001600160a01b0393909316845291905290205460ff1690565b600381815481106107c957600080fd5b90600052602060002001600091509050805461070f90611479565b6000805160206116d28339815191526107fc81610e0e565b60018360405161080c919061145d565b9081526040519081900360200190206009015460ff600160a81b909104166108765760405162461bcd60e51b815260206004820152601c60248201527f457265627275733a204e6f646520646f6573206e6f74206578697374000000006044820152606401610313565b81600184604051610887919061145d565b908152604051908190036020019020600901805460ff60a01b1916600160a01b8360038111156108b9576108b9611335565b02179055507fb43103a3adf1026cd2a4cd979b4e0d2b35045e82cf13b4b8aa839f7b28b8c08283836040516106de9291906116af565b60008281526020819052604090206001015461090a81610e0e565b6105b18383610ead565b805160208183018101805160018252928201919093012091528054819061093a90611479565b80601f016020809104026020016040519081016040528092919081815260200182805461096690611479565b80156109b35780601f10610988576101008083540402835291602001916109b3565b820191906000526020600020905b81548152906001019060200180831161099657829003601f168201915b505050600184015460028501805494956001600160a01b039092169491935091506109dd90611479565b80601f0160208091040260200160405190810160405280929190818152602001828054610a0990611479565b8015610a565780601f10610a2b57610100808354040283529160200191610a56565b820191906000526020600020905b815481529060010190602001808311610a3957829003601f168201915b505050505090806003018054610a6b90611479565b80601f0160208091040260200160405190810160405280929190818152602001828054610a9790611479565b8015610ae45780601f10610ab957610100808354040283529160200191610ae4565b820191906000526020600020905b815481529060010190602001808311610ac757829003601f168201915b505050505090806004018054610af990611479565b80601f0160208091040260200160405190810160405280929190818152602001828054610b2590611479565b8015610b725780601f10610b4757610100808354040283529160200191610b72565b820191906000526020600020905b815481529060010190602001808311610b5557829003601f168201915b505050505090806005018054610b8790611479565b80601f0160208091040260200160405190810160405280929190818152602001828054610bb390611479565b8015610c005780601f10610bd557610100808354040283529160200191610c00565b820191906000526020600020905b815481529060010190602001808311610be357829003601f168201915b505050505090806006018054610c1590611479565b80601f0160208091040260200160405190810160405280929190818152602001828054610c4190611479565b8015610c8e5780601f10610c6357610100808354040283529160200191610c8e565b820191906000526020600020905b815481529060010190602001808311610c7157829003601f168201915b505050505090806007018054610ca390611479565b80601f0160208091040260200160405190810160405280929190818152602001828054610ccf90611479565b8015610d1c5780601f10610cf157610100808354040283529160200191610d1c565b820191906000526020600020905b815481529060010190602001808311610cff57829003601f168201915b505050505090806008018054610d3190611479565b80601f0160208091040260200160405190810160405280929190818152602001828054610d5d90611479565b8015610daa5780601f10610d7f57610100808354040283529160200191610daa565b820191906000526020600020905b815481529060010190602001808311610d8d57829003601f168201915b505050600990930154919250506001600160a01b0381169060ff600160a01b8204811691600160a81b9004168c565b60006001600160e01b03198216637965db0b60e01b148061028757506301ffc9a760e01b6001600160e01b0319831614610287565b610e188133610f18565b50565b6000610e278383610790565b610ea5576000838152602081815260408083206001600160a01b03861684529091529020805460ff19166001179055610e5d3390565b6001600160a01b0316826001600160a01b0316847f2f8788117e7eff1d82e926ec794901d17c78024a50270940304540a733656f0d60405160405180910390a4506001610287565b506000610287565b6000610eb98383610790565b15610ea5576000838152602081815260408083206001600160a01b0386168085529252808320805460ff1916905551339286917ff6391f5c32d9c69d2a47ea670b442974b53935d1edc7fd64eb21e047a839171b9190a4506001610287565b610f228282610790565b610f515760405163e2517d3f60e01b81526001600160a01b038216600482015260248101839052604401610313565b5050565b600060208284031215610f6757600080fd5b81356001600160e01b031981168114610f7f57600080fd5b9392505050565b634e487b7160e01b600052604160045260246000fd5b600082601f830112610fad57600080fd5b813567ffffffffffffffff80821115610fc857610fc8610f86565b604051601f8301601f19908116603f01168101908282118183101715610ff057610ff0610f86565b8160405283815286602085880101111561100957600080fd5b836020870160208301376000602085830101528094505050505092915050565b80356001600160a01b038116811461104057600080fd5b919050565b60008060008060008060008060006101208a8c03121561106457600080fd5b893567ffffffffffffffff8082111561107c57600080fd5b6110888d838e01610f9c565b9a5060208c013591508082111561109e57600080fd5b6110aa8d838e01610f9c565b995060408c01359150808211156110c057600080fd5b6110cc8d838e01610f9c565b985060608c01359150808211156110e257600080fd5b6110ee8d838e01610f9c565b975060808c013591508082111561110457600080fd5b6111108d838e01610f9c565b965060a08c013591508082111561112657600080fd5b6111328d838e01610f9c565b955060c08c013591508082111561114857600080fd5b6111548d838e01610f9c565b945060e08c013591508082111561116a57600080fd5b506111778c828d01610f9c565b9250506111876101008b01611029565b90509295985092959850929598565b6000602082840312156111a857600080fd5b5035919050565b600080604083850312156111c257600080fd5b823591506111d260208401611029565b90509250929050565b600080604083850312156111ee57600080fd5b823567ffffffffffffffff8082111561120657600080fd5b61121286838701610f9c565b9350602085013591508082111561122857600080fd5b5061123585828601610f9c565b9150509250929050565b60006020828403121561125157600080fd5b813567ffffffffffffffff81111561126857600080fd5b61127484828501610f9c565b949350505050565b60005b8381101561129757818101518382015260200161127f565b50506000910152565b600081518084526112b881602086016020860161127c565b601f01601f19169290920160200192915050565b602081526000610f7f60208301846112a0565b600080604083850312156112f257600080fd5b823567ffffffffffffffff81111561130957600080fd5b61131585828601610f9c565b92505060208301356004811061132a57600080fd5b809150509250929050565b634e487b7160e01b600052602160045260246000fd5b6004811061136957634e487b7160e01b600052602160045260246000fd5b9052565b6101808152600061138261018083018f6112a0565b6001600160a01b038e16602084015282810360408401526113a3818e6112a0565b905082810360608401526113b7818d6112a0565b905082810360808401526113cb818c6112a0565b905082810360a08401526113df818b6112a0565b905082810360c08401526113f3818a6112a0565b905082810360e084015261140781896112a0565b905082810361010084015261141c81886112a0565b9150506114356101208301866001600160a01b03169052565b61144361014083018561134b565b8215156101608301529d9c50505050505050505050505050565b6000825161146f81846020870161127c565b9190910192915050565b600181811c9082168061148d57607f821691505b6020821081036114ad57634e487b7160e01b600052602260045260246000fd5b50919050565b601f8211156105ea57600081815260208120601f850160051c810160208610156114da5750805b601f850160051c820191505b818110156114f9578281556001016114e6565b505050505050565b815167ffffffffffffffff81111561151b5761151b610f86565b61152f816115298454611479565b846114b3565b602080601f831160018114611564576000841561154c5750858301515b600019600386901b1c1916600185901b1785556114f9565b600085815260208120601f198616915b8281101561159357888601518255948401946001909101908401611574565b50858210156115b15787850151600019600388901b60f8161c191681555b5050505050600190811b01905550565b60006101208083526115d58184018d6112a0565b905082810360208401526115e9818c6112a0565b905082810360408401526115fd818b6112a0565b90508281036060840152611611818a6112a0565b9050828103608084015261162581896112a0565b905082810360a084015261163981886112a0565b905082810360c084015261164d81876112a0565b905082810360e084015261166181866112a0565b91505060018060a01b0383166101008301529a9950505050505050505050565b60408152600061169460408301856112a0565b82810360208401526116a681856112a0565b95945050505050565b6040815260006116c260408301856112a0565b9050610f7f602083018461134b56fe97667070c54ef182b0f5858b034beac1b6f3089aa2d3188bb1e8929f4fa9b929a264697066735822122084bb3fb096386350bc8071773df8d651575a99a6a90482812ef42276d6819a9e64736f6c63430008140033","opcodes":"PUSH1 0x80 PUSH1 0x40 MSTORE CALLVALUE DUP1 ISZERO PUSH2 0x10 JUMPI PUSH1 0x0 DUP1 REVERT JUMPDEST POP PUSH2 0x3B PUSH32 0xA49807205CE4D355092EF5A8A18F56E8913CF4A201FBE287825B095693C21775 CALLER PUSH2 0x6C JUMP JUMPDEST POP PUSH2 0x66 PUSH32 0x97667070C54EF182B0F5858B034BEAC1B6F3089AA2D3188BB1E8929F4FA9B929 CALLER PUSH2 0x6C JUMP JUMPDEST POP PUSH2 0x118 JUMP JUMPDEST PUSH1 0x0 DUP3 DUP2 MSTORE PUSH1 0x20 DUP2 DUP2 MSTORE PUSH1 0x40 DUP1 DUP4 KECCAK256 PUSH1 0x1 PUSH1 0x1 PUSH1 0xA0 SHL SUB DUP6 AND DUP5 MSTORE SWAP1 SWAP2 MSTORE DUP2 KECCAK256 SLOAD PUSH1 0xFF AND PUSH2 0x10E JUMPI PUSH1 0x0 DUP4 DUP2 MSTORE PUSH1 0x20 DUP2 DUP2 MSTORE PUSH1 0x40 DUP1 DUP4 KECCAK256 PUSH1 0x1 PUSH1 0x1 PUSH1 0xA0 SHL SUB DUP7 AND DUP5 MSTORE SWAP1 SWAP2 MSTORE SWAP1 KECCAK256 DUP1 SLOAD PUSH1 0xFF NOT AND PUSH1 0x1 OR SWAP1 SSTORE PUSH2 0xC6 CALLER SWAP1 JUMP JUMPDEST PUSH1 0x1 PUSH1 0x1 PUSH1 0xA0 SHL SUB AND DUP3 PUSH1 0x1 PUSH1 0x1 PUSH1 0xA0 SHL SUB AND DUP5 PUSH32 0x2F8788117E7EFF1D82E926EC794901D17C78024A50270940304540A733656F0D PUSH1 0x40 MLOAD PUSH1 0x40 MLOAD DUP1 SWAP2 SUB SWAP1 LOG4 POP PUSH1 0x1 PUSH2 0x112 JUMP JUMPDEST POP PUSH1 0x0 JUMPDEST SWAP3 SWAP2 POP POP JUMP JUMPDEST PUSH2 0x1727 DUP1 PUSH2 0x127 PUSH1 0x0 CODECOPY PUSH1 0x0 RETURN INVALID PUSH1 0x80 PUSH1 0x40 MSTORE CALLVALUE DUP1 ISZERO PUSH2 0x10 JUMPI PUSH1 0x0 DUP1 REVERT JUMPDEST POP PUSH1 0x4 CALLDATASIZE LT PUSH2 0xF5 JUMPI PUSH1 0x0 CALLDATALOAD PUSH1 0xE0 SHR DUP1 PUSH4 0x75B238FC GT PUSH2 0x97 JUMPI DUP1 PUSH4 0xCA046C62 GT PUSH2 0x66 JUMPI DUP1 PUSH4 0xCA046C62 EQ PUSH2 0x216 JUMPI DUP1 PUSH4 0xD547741F EQ PUSH2 0x229 JUMPI DUP1 PUSH4 0xF5417CA2 EQ PUSH2 0x23C JUMPI DUP1 PUSH4 0xF5B541A6 EQ PUSH2 0x267 JUMPI PUSH1 0x0 DUP1 REVERT JUMPDEST DUP1 PUSH4 0x75B238FC EQ PUSH2 0x1C1 JUMPI DUP1 PUSH4 0x91D14854 EQ PUSH2 0x1E8 JUMPI DUP1 PUSH4 0x98543166 EQ PUSH2 0x1FB JUMPI DUP1 PUSH4 0xA217FDDF EQ PUSH2 0x20E JUMPI PUSH1 0x0 DUP1 REVERT JUMPDEST DUP1 PUSH4 0x2F2FF15D GT PUSH2 0xD3 JUMPI DUP1 PUSH4 0x2F2FF15D EQ PUSH2 0x168 JUMPI DUP1 PUSH4 0x36568ABE EQ PUSH2 0x17B JUMPI DUP1 PUSH4 0x5B5BF994 EQ PUSH2 0x18E JUMPI DUP1 PUSH4 0x6697A925 EQ PUSH2 0x1A1 JUMPI PUSH1 0x0 DUP1 REVERT JUMPDEST DUP1 PUSH4 0x1FFC9A7 EQ PUSH2 0xFA JUMPI DUP1 PUSH4 0x1B82FD1E EQ PUSH2 0x122 JUMPI DUP1 PUSH4 0x248A9CA3 EQ PUSH2 0x137 JUMPI JUMPDEST PUSH1 0x0 DUP1 REVERT JUMPDEST PUSH2 0x10D PUSH2 0x108 CALLDATASIZE PUSH1 0x4 PUSH2 0xF55 JUMP JUMPDEST PUSH2 0x27C JUMP JUMPDEST PUSH1 0x40 MLOAD SWAP1 ISZERO ISZERO DUP2 MSTORE PUSH1 0x20 ADD JUMPDEST PUSH1 0x40 MLOAD DUP1 SWAP2 SUB SWAP1 RETURN JUMPDEST PUSH2 0x135 PUSH2 0x130 CALLDATASIZE PUSH1 0x4 PUSH2 0x1045 JUMP JUMPDEST PUSH2 0x28D JUMP JUMPDEST STOP JUMPDEST PUSH2 0x15A PUSH2 0x145 CALLDATASIZE PUSH1 0x4 PUSH2 0x1196 JUMP JUMPDEST PUSH1 0x0 SWAP1 DUP2 MSTORE PUSH1 0x20 DUP2 SWAP1 MSTORE PUSH1 0x40 SWAP1 KECCAK256 PUSH1 0x1 ADD SLOAD SWAP1 JUMP JUMPDEST PUSH1 0x40 MLOAD SWAP1 DUP2 MSTORE PUSH1 0x20 ADD PUSH2 0x119 JUMP JUMPDEST PUSH2 0x135 PUSH2 0x176 CALLDATASIZE PUSH1 0x4 PUSH2 0x11AF JUMP JUMPDEST PUSH2 0x58C JUMP JUMPDEST PUSH2 0x135 PUSH2 0x189 CALLDATASIZE PUSH1 0x4 PUSH2 0x11AF JUMP JUMPDEST PUSH2 0x5B7 JUMP JUMPDEST PUSH2 0x135 PUSH2 0x19C CALLDATASIZE PUSH1 0x4 PUSH2 0x11DB JUMP JUMPDEST PUSH2 0x5EF JUMP JUMPDEST PUSH2 0x1B4 PUSH2 0x1AF CALLDATASIZE PUSH1 0x4 PUSH2 0x123F JUMP JUMPDEST PUSH2 0x6EB JUMP JUMPDEST PUSH1 0x40 MLOAD PUSH2 0x119 SWAP2 SWAP1 PUSH2 0x12CC JUMP JUMPDEST PUSH2 0x15A PUSH32 0xA49807205CE4D355092EF5A8A18F56E8913CF4A201FBE287825B095693C21775 DUP2 JUMP JUMPDEST PUSH2 0x10D PUSH2 0x1F6 CALLDATASIZE PUSH1 0x4 PUSH2 0x11AF JUMP JUMPDEST PUSH2 0x790 JUMP JUMPDEST PUSH2 0x1B4 PUSH2 0x209 CALLDATASIZE PUSH1 0x4 PUSH2 0x1196 JUMP JUMPDEST PUSH2 0x7B9 JUMP JUMPDEST PUSH2 0x15A PUSH1 0x0 DUP2 JUMP JUMPDEST PUSH2 0x135 PUSH2 0x224 CALLDATASIZE PUSH1 0x4 PUSH2 0x12DF JUMP JUMPDEST PUSH2 0x7E4 JUMP JUMPDEST PUSH2 0x135 PUSH2 0x237 CALLDATASIZE PUSH1 0x4 PUSH2 0x11AF JUMP JUMPDEST PUSH2 0x8EF JUMP JUMPDEST PUSH2 0x24F PUSH2 0x24A CALLDATASIZE PUSH1 0x4 PUSH2 0x123F JUMP JUMPDEST PUSH2 0x914 JUMP JUMPDEST PUSH1 0x40 MLOAD PUSH2 0x119 SWAP13 SWAP12 SWAP11 SWAP10 SWAP9 SWAP8 SWAP7 SWAP6 SWAP5 SWAP4 SWAP3 SWAP2 SWAP1 PUSH2 0x136D JUMP JUMPDEST PUSH2 0x15A PUSH1 0x0 DUP1 MLOAD PUSH1 0x20 PUSH2 0x16D2 DUP4 CODECOPY DUP2 MLOAD SWAP2 MSTORE DUP2 JUMP JUMPDEST PUSH1 0x0 PUSH2 0x287 DUP3 PUSH2 0xDD9 JUMP JUMPDEST SWAP3 SWAP2 POP POP JUMP JUMPDEST PUSH1 0x0 DUP1 MLOAD PUSH1 0x20 PUSH2 0x16D2 DUP4 CODECOPY DUP2 MLOAD SWAP2 MSTORE PUSH2 0x2A5 DUP2 PUSH2 0xE0E JUMP JUMPDEST PUSH1 0x1 DUP11 PUSH1 0x40 MLOAD PUSH2 0x2B5 SWAP2 SWAP1 PUSH2 0x145D JUMP JUMPDEST SWAP1 DUP2 MSTORE PUSH1 0x40 MLOAD SWAP1 DUP2 SWAP1 SUB PUSH1 0x20 ADD SWAP1 KECCAK256 PUSH1 0x9 ADD SLOAD PUSH1 0xFF PUSH1 0x1 PUSH1 0xA8 SHL SWAP1 SWAP2 DIV AND ISZERO PUSH2 0x31C JUMPI PUSH1 0x40 MLOAD PUSH3 0x461BCD PUSH1 0xE5 SHL DUP2 MSTORE PUSH1 0x20 PUSH1 0x4 DUP3 ADD MSTORE PUSH1 0x14 PUSH1 0x24 DUP3 ADD MSTORE PUSH20 0x4E6F646520616C72656164792065786973747321 PUSH1 0x60 SHL PUSH1 0x44 DUP3 ADD MSTORE PUSH1 0x64 ADD JUMPDEST PUSH1 0x40 MLOAD DUP1 SWAP2 SUB SWAP1 REVERT JUMPDEST PUSH1 0x40 MLOAD DUP1 PUSH2 0x180 ADD PUSH1 0x40 MSTORE DUP1 DUP12 DUP2 MSTORE PUSH1 0x20 ADD PUSH2 0x335 CALLER SWAP1 JUMP JUMPDEST PUSH1 0x1 PUSH1 0x1 PUSH1 0xA0 SHL SUB AND DUP2 MSTORE PUSH1 0x20 ADD DUP11 DUP2 MSTORE PUSH1 0x20 ADD DUP10 DUP2 MSTORE PUSH1 0x20 ADD DUP9 DUP2 MSTORE PUSH1 0x20 ADD DUP8 DUP2 MSTORE PUSH1 0x20 ADD DUP7 DUP2 MSTORE PUSH1 0x20 ADD DUP6 DUP2 MSTORE PUSH1 0x20 ADD DUP5 DUP2 MSTORE PUSH1 0x20 ADD DUP4 PUSH1 0x1 PUSH1 0x1 PUSH1 0xA0 SHL SUB AND DUP2 MSTORE PUSH1 0x20 ADD PUSH1 0x1 PUSH1 0x3 DUP2 GT ISZERO PUSH2 0x38F JUMPI PUSH2 0x38F PUSH2 0x1335 JUMP JUMPDEST DUP2 MSTORE PUSH1 0x1 PUSH1 0x20 SWAP1 SWAP2 ADD DUP2 SWAP1 MSTORE PUSH1 0x40 MLOAD PUSH2 0x3A9 SWAP1 DUP14 SWAP1 PUSH2 0x145D JUMP JUMPDEST SWAP1 DUP2 MSTORE PUSH1 0x40 MLOAD SWAP1 DUP2 SWAP1 SUB PUSH1 0x20 ADD SWAP1 KECCAK256 DUP2 MLOAD DUP2 SWAP1 PUSH2 0x3C6 SWAP1 DUP3 PUSH2 0x1501 JUMP JUMPDEST POP PUSH1 0x20 DUP3 ADD MLOAD PUSH1 0x1 DUP3 ADD DUP1 SLOAD PUSH1 0x1 PUSH1 0x1 PUSH1 0xA0 SHL SUB NOT AND PUSH1 0x1 PUSH1 0x1 PUSH1 0xA0 SHL SUB SWAP1 SWAP3 AND SWAP2 SWAP1 SWAP2 OR SWAP1 SSTORE PUSH1 0x40 DUP3 ADD MLOAD PUSH1 0x2 DUP3 ADD SWAP1 PUSH2 0x401 SWAP1 DUP3 PUSH2 0x1501 JUMP JUMPDEST POP PUSH1 0x60 DUP3 ADD MLOAD PUSH1 0x3 DUP3 ADD SWAP1 PUSH2 0x416 SWAP1 DUP3 PUSH2 0x1501 JUMP JUMPDEST POP PUSH1 0x80 DUP3 ADD MLOAD PUSH1 0x4 DUP3 ADD SWAP1 PUSH2 0x42B SWAP1 DUP3 PUSH2 0x1501 JUMP JUMPDEST POP PUSH1 0xA0 DUP3 ADD MLOAD PUSH1 0x5 DUP3 ADD SWAP1 PUSH2 0x440 SWAP1 DUP3 PUSH2 0x1501 JUMP JUMPDEST POP PUSH1 0xC0 DUP3 ADD MLOAD PUSH1 0x6 DUP3 ADD SWAP1 PUSH2 0x455 SWAP1 DUP3 PUSH2 0x1501 JUMP JUMPDEST POP PUSH1 0xE0 DUP3 ADD MLOAD PUSH1 0x7 DUP3 ADD SWAP1 PUSH2 0x46A SWAP1 DUP3 PUSH2 0x1501 JUMP JUMPDEST POP PUSH2 0x100 DUP3 ADD MLOAD PUSH1 0x8 DUP3 ADD SWAP1 PUSH2 0x480 SWAP1 DUP3 PUSH2 0x1501 JUMP JUMPDEST POP PUSH2 0x120 DUP3 ADD MLOAD PUSH1 0x9 DUP3 ADD DUP1 SLOAD PUSH1 0x1 PUSH1 0x1 PUSH1 0xA0 SHL SUB SWAP1 SWAP3 AND PUSH1 0x1 PUSH1 0x1 PUSH1 0xA0 SHL SUB NOT DUP4 AND DUP2 OR DUP3 SSTORE PUSH2 0x140 DUP6 ADD MLOAD SWAP3 PUSH1 0x1 PUSH1 0x1 PUSH1 0xA8 SHL SUB NOT AND OR PUSH1 0x1 PUSH1 0xA0 SHL DUP4 PUSH1 0x3 DUP2 GT ISZERO PUSH2 0x4D0 JUMPI PUSH2 0x4D0 PUSH2 0x1335 JUMP JUMPDEST MUL OR SWAP1 SSTORE POP PUSH2 0x160 SWAP2 SWAP1 SWAP2 ADD MLOAD PUSH1 0x9 SWAP1 SWAP2 ADD DUP1 SLOAD SWAP2 ISZERO ISZERO PUSH1 0x1 PUSH1 0xA8 SHL MUL PUSH1 0xFF PUSH1 0xA8 SHL NOT SWAP1 SWAP3 AND SWAP2 SWAP1 SWAP2 OR SWAP1 SSTORE PUSH1 0x3 DUP1 SLOAD PUSH1 0x1 DUP2 ADD DUP3 SSTORE PUSH1 0x0 SWAP2 SWAP1 SWAP2 MSTORE PUSH32 0xC2575A0E9E593C00F959F8C92F12DB2869C3395A3B0502D05E2516446F71F85B ADD PUSH2 0x538 DUP12 DUP3 PUSH2 0x1501 JUMP JUMPDEST POP PUSH32 0xB66BE261A24A8510672E1E7C496EAE0C1D2CE9D29EB6E048D03C6DA74F0F526C DUP11 DUP11 DUP11 DUP11 DUP11 DUP11 DUP11 DUP11 DUP11 PUSH1 0x40 MLOAD PUSH2 0x578 SWAP10 SWAP9 SWAP8 SWAP7 SWAP6 SWAP5 SWAP4 SWAP3 SWAP2 SWAP1 PUSH2 0x15C1 JUMP JUMPDEST PUSH1 0x40 MLOAD DUP1 SWAP2 SUB SWAP1 LOG1 POP POP POP POP POP POP POP POP POP POP JUMP JUMPDEST PUSH1 0x0 DUP3 DUP2 MSTORE PUSH1 0x20 DUP2 SWAP1 MSTORE PUSH1 0x40 SWAP1 KECCAK256 PUSH1 0x1 ADD SLOAD PUSH2 0x5A7 DUP2 PUSH2 0xE0E JUMP JUMPDEST PUSH2 0x5B1 DUP4 DUP4 PUSH2 0xE1B JUMP JUMPDEST POP POP POP POP JUMP JUMPDEST PUSH1 0x1 PUSH1 0x1 PUSH1 0xA0 SHL SUB DUP2 AND CALLER EQ PUSH2 0x5E0 JUMPI PUSH1 0x40 MLOAD PUSH4 0x334BD919 PUSH1 0xE1 SHL DUP2 MSTORE PUSH1 0x4 ADD PUSH1 0x40 MLOAD DUP1 SWAP2 SUB SWAP1 REVERT JUMPDEST PUSH2 0x5EA DUP3 DUP3 PUSH2 0xEAD JUMP JUMPDEST POP POP POP JUMP JUMPDEST PUSH1 0x0 DUP1 MLOAD PUSH1 0x20 PUSH2 0x16D2 DUP4 CODECOPY DUP2 MLOAD SWAP2 MSTORE PUSH2 0x607 DUP2 PUSH2 0xE0E JUMP JUMPDEST PUSH1 0x1 DUP4 PUSH1 0x40 MLOAD PUSH2 0x617 SWAP2 SWAP1 PUSH2 0x145D JUMP JUMPDEST SWAP1 DUP2 MSTORE PUSH1 0x40 MLOAD SWAP1 DUP2 SWAP1 SUB PUSH1 0x20 ADD SWAP1 KECCAK256 PUSH1 0x9 ADD SLOAD PUSH1 0xFF PUSH1 0x1 PUSH1 0xA8 SHL SWAP1 SWAP2 DIV AND PUSH2 0x681 JUMPI PUSH1 0x40 MLOAD PUSH3 0x461BCD PUSH1 0xE5 SHL DUP2 MSTORE PUSH1 0x20 PUSH1 0x4 DUP3 ADD MSTORE PUSH1 0x1C PUSH1 0x24 DUP3 ADD MSTORE PUSH32 0x457265627275733A204E6F646520646F6573206E6F7420657869737400000000 PUSH1 0x44 DUP3 ADD MSTORE PUSH1 0x64 ADD PUSH2 0x313 JUMP JUMPDEST DUP2 PUSH1 0x2 DUP5 PUSH1 0x40 MLOAD PUSH2 0x692 SWAP2 SWAP1 PUSH2 0x145D JUMP JUMPDEST SWAP1 DUP2 MSTORE PUSH1 0x20 ADD PUSH1 0x40 MLOAD DUP1 SWAP2 SUB SWAP1 KECCAK256 SWAP1 DUP2 PUSH2 0x6AC SWAP2 SWAP1 PUSH2 0x1501 JUMP JUMPDEST POP PUSH32 0xD67D1994A0F3D42767C76ED3D9C8D88E3488034AF6F2B3609BAEBF227A4602BE DUP4 DUP4 PUSH1 0x40 MLOAD PUSH2 0x6DE SWAP3 SWAP2 SWAP1 PUSH2 0x1681 JUMP JUMPDEST PUSH1 0x40 MLOAD DUP1 SWAP2 SUB SWAP1 LOG1 POP POP POP JUMP JUMPDEST DUP1 MLOAD PUSH1 0x20 DUP2 DUP4 ADD DUP2 ADD DUP1 MLOAD PUSH1 0x2 DUP3 MSTORE SWAP3 DUP3 ADD SWAP2 SWAP1 SWAP4 ADD KECCAK256 SWAP2 MSTORE DUP1 SLOAD PUSH2 0x70F SWAP1 PUSH2 0x1479 JUMP JUMPDEST DUP1 PUSH1 0x1F ADD PUSH1 0x20 DUP1 SWAP2 DIV MUL PUSH1 0x20 ADD PUSH1 0x40 MLOAD SWAP1 DUP2 ADD PUSH1 0x40 MSTORE DUP1 SWAP3 SWAP2 SWAP1 DUP2 DUP2 MSTORE PUSH1 0x20 ADD DUP3 DUP1 SLOAD PUSH2 0x73B SWAP1 PUSH2 0x1479 JUMP JUMPDEST DUP1 ISZERO PUSH2 0x788 JUMPI DUP1 PUSH1 0x1F LT PUSH2 0x75D JUMPI PUSH2 0x100 DUP1 DUP4 SLOAD DIV MUL DUP4 MSTORE SWAP2 PUSH1 0x20 ADD SWAP2 PUSH2 0x788 JUMP JUMPDEST DUP3 ADD SWAP2 SWAP1 PUSH1 0x0 MSTORE PUSH1 0x20 PUSH1 0x0 KECCAK256 SWAP1 JUMPDEST DUP2 SLOAD DUP2 MSTORE SWAP1 PUSH1 0x1 ADD SWAP1 PUSH1 0x20 ADD DUP1 DUP4 GT PUSH2 0x76B JUMPI DUP3 SWAP1 SUB PUSH1 0x1F AND DUP3 ADD SWAP2 JUMPDEST POP POP POP POP POP DUP2 JUMP JUMPDEST PUSH1 0x0 SWAP2 DUP3 MSTORE PUSH1 0x20 DUP3 DUP2 MSTORE PUSH1 0x40 DUP1 DUP5 KECCAK256 PUSH1 0x1 PUSH1 0x1 PUSH1 0xA0 SHL SUB SWAP4 SWAP1 SWAP4 AND DUP5 MSTORE SWAP2 SWAP1 MSTORE SWAP1 KECCAK256 SLOAD PUSH1 0xFF AND SWAP1 JUMP JUMPDEST PUSH1 0x3 DUP2 DUP2 SLOAD DUP2 LT PUSH2 0x7C9 JUMPI PUSH1 0x0 DUP1 REVERT JUMPDEST SWAP1 PUSH1 0x0 MSTORE PUSH1 0x20 PUSH1 0x0 KECCAK256 ADD PUSH1 0x0 SWAP2 POP SWAP1 POP DUP1 SLOAD PUSH2 0x70F SWAP1 PUSH2 0x1479 JUMP JUMPDEST PUSH1 0x0 DUP1 MLOAD PUSH1 0x20 PUSH2 0x16D2 DUP4 CODECOPY DUP2 MLOAD SWAP2 MSTORE PUSH2 0x7FC DUP2 PUSH2 0xE0E JUMP JUMPDEST PUSH1 0x1 DUP4 PUSH1 0x40 MLOAD PUSH2 0x80C SWAP2 SWAP1 PUSH2 0x145D JUMP JUMPDEST SWAP1 DUP2 MSTORE PUSH1 0x40 MLOAD SWAP1 DUP2 SWAP1 SUB PUSH1 0x20 ADD SWAP1 KECCAK256 PUSH1 0x9 ADD SLOAD PUSH1 0xFF PUSH1 0x1 PUSH1 0xA8 SHL SWAP1 SWAP2 DIV AND PUSH2 0x876 JUMPI PUSH1 0x40 MLOAD PUSH3 0x461BCD PUSH1 0xE5 SHL DUP2 MSTORE PUSH1 0x20 PUSH1 0x4 DUP3 ADD MSTORE PUSH1 0x1C PUSH1 0x24 DUP3 ADD MSTORE PUSH32 0x457265627275733A204E6F646520646F6573206E6F7420657869737400000000 PUSH1 0x44 DUP3 ADD MSTORE PUSH1 0x64 ADD PUSH2 0x313 JUMP JUMPDEST DUP2 PUSH1 0x1 DUP5 PUSH1 0x40 MLOAD PUSH2 0x887 SWAP2 SWAP1 PUSH2 0x145D JUMP JUMPDEST SWAP1 DUP2 MSTORE PUSH1 0x40 MLOAD SWAP1 DUP2 SWAP1 SUB PUSH1 0x20 ADD SWAP1 KECCAK256 PUSH1 0x9 ADD DUP1 SLOAD PUSH1 0xFF PUSH1 0xA0 SHL NOT AND PUSH1 0x1 PUSH1 0xA0 SHL DUP4 PUSH1 0x3 DUP2 GT ISZERO PUSH2 0x8B9 JUMPI PUSH2 0x8B9 PUSH2 0x1335 JUMP JUMPDEST MUL OR SWAP1 SSTORE POP PUSH32 0xB43103A3ADF1026CD2A4CD979B4E0D2B35045E82CF13B4B8AA839F7B28B8C082 DUP4 DUP4 PUSH1 0x40 MLOAD PUSH2 0x6DE SWAP3 SWAP2 SWAP1 PUSH2 0x16AF JUMP JUMPDEST PUSH1 0x0 DUP3 DUP2 MSTORE PUSH1 0x20 DUP2 SWAP1 MSTORE PUSH1 0x40 SWAP1 KECCAK256 PUSH1 0x1 ADD SLOAD PUSH2 0x90A DUP2 PUSH2 0xE0E JUMP JUMPDEST PUSH2 0x5B1 DUP4 DUP4 PUSH2 0xEAD JUMP JUMPDEST DUP1 MLOAD PUSH1 0x20 DUP2 DUP4 ADD DUP2 ADD DUP1 MLOAD PUSH1 0x1 DUP3 MSTORE SWAP3 DUP3 ADD SWAP2 SWAP1 SWAP4 ADD KECCAK256 SWAP2 MSTORE DUP1 SLOAD DUP2 SWAP1 PUSH2 0x93A SWAP1 PUSH2 0x1479 JUMP JUMPDEST DUP1 PUSH1 0x1F ADD PUSH1 0x20 DUP1 SWAP2 DIV MUL PUSH1 0x20 ADD PUSH1 0x40 MLOAD SWAP1 DUP2 ADD PUSH1 0x40 MSTORE DUP1 SWAP3 SWAP2 SWAP1 DUP2 DUP2 MSTORE PUSH1 0x20 ADD DUP3 DUP1 SLOAD PUSH2 0x966 SWAP1 PUSH2 0x1479 JUMP JUMPDEST DUP1 ISZERO PUSH2 0x9B3 JUMPI DUP1 PUSH1 0x1F LT PUSH2 0x988 JUMPI PUSH2 0x100 DUP1 DUP4 SLOAD DIV MUL DUP4 MSTORE SWAP2 PUSH1 0x20 ADD SWAP2 PUSH2 0x9B3 JUMP JUMPDEST DUP3 ADD SWAP2 SWAP1 PUSH1 0x0 MSTORE PUSH1 0x20 PUSH1 0x0 KECCAK256 SWAP1 JUMPDEST DUP2 SLOAD DUP2 MSTORE SWAP1 PUSH1 0x1 ADD SWAP1 PUSH1 0x20 ADD DUP1 DUP4 GT PUSH2 0x996 JUMPI DUP3 SWAP1 SUB PUSH1 0x1F AND DUP3 ADD SWAP2 JUMPDEST POP POP POP PUSH1 0x1 DUP5 ADD SLOAD PUSH1 0x2 DUP6 ADD DUP1 SLOAD SWAP5 SWAP6 PUSH1 0x1 PUSH1 0x1 PUSH1 0xA0 SHL SUB SWAP1 SWAP3 AND SWAP5 SWAP2 SWAP4 POP SWAP2 POP PUSH2 0x9DD SWAP1 PUSH2 0x1479 JUMP JUMPDEST DUP1 PUSH1 0x1F ADD PUSH1 0x20 DUP1 SWAP2 DIV MUL PUSH1 0x20 ADD PUSH1 0x40 MLOAD SWAP1 DUP2 ADD PUSH1 0x40 MSTORE DUP1 SWAP3 SWAP2 SWAP1 DUP2 DUP2 MSTORE PUSH1 0x20 ADD DUP3 DUP1 SLOAD PUSH2 0xA09 SWAP1 PUSH2 0x1479 JUMP JUMPDEST DUP1 ISZERO PUSH2 0xA56 JUMPI DUP1 PUSH1 0x1F LT PUSH2 0xA2B JUMPI PUSH2 0x100 DUP1 DUP4 SLOAD DIV MUL DUP4 MSTORE SWAP2 PUSH1 0x20 ADD SWAP2 PUSH2 0xA56 JUMP JUMPDEST DUP3 ADD SWAP2 SWAP1 PUSH1 0x0 MSTORE PUSH1 0x20 PUSH1 0x0 KECCAK256 SWAP1 JUMPDEST DUP2 SLOAD DUP2 MSTORE SWAP1 PUSH1 0x1 ADD SWAP1 PUSH1 0x20 ADD DUP1 DUP4 GT PUSH2 0xA39 JUMPI DUP3 SWAP1 SUB PUSH1 0x1F AND DUP3 ADD SWAP2 JUMPDEST POP POP POP POP POP SWAP1 DUP1 PUSH1 0x3 ADD DUP1 SLOAD PUSH2 0xA6B SWAP1 PUSH2 0x1479 JUMP JUMPDEST DUP1 PUSH1 0x1F ADD PUSH1 0x20 DUP1 SWAP2 DIV MUL PUSH1 0x20 ADD PUSH1 0x40 MLOAD SWAP1 DUP2 ADD PUSH1 0x40 MSTORE DUP1 SWAP3 SWAP2 SWAP1 DUP2 DUP2 MSTORE PUSH1 0x20 ADD DUP3 DUP1 SLOAD PUSH2 0xA97 SWAP1 PUSH2 0x1479 JUMP JUMPDEST DUP1 ISZERO PUSH2 0xAE4 JUMPI DUP1 PUSH1 0x1F LT PUSH2 0xAB9 JUMPI PUSH2 0x100 DUP1 DUP4 SLOAD DIV MUL DUP4 MSTORE SWAP2 PUSH1 0x20 ADD SWAP2 PUSH2 0xAE4 JUMP JUMPDEST DUP3 ADD SWAP2 SWAP1 PUSH1 0x0 MSTORE PUSH1 0x20 PUSH1 0x0 KECCAK256 SWAP1 JUMPDEST DUP2 SLOAD DUP2 MSTORE SWAP1 PUSH1 0x1 ADD SWAP1 PUSH1 0x20 ADD DUP1 DUP4 GT PUSH2 0xAC7 JUMPI DUP3 SWAP1 SUB PUSH1 0x1F AND DUP3 ADD SWAP2 JUMPDEST POP POP POP POP POP SWAP1 DUP1 PUSH1 0x4 ADD DUP1 SLOAD PUSH2 0xAF9 SWAP1 PUSH2 0x1479 JUMP JUMPDEST DUP1 PUSH1 0x1F ADD PUSH1 0x20 DUP1 SWAP2 DIV MUL PUSH1 0x20 ADD PUSH1 0x40 MLOAD SWAP1 DUP2 ADD PUSH1 0x40 MSTORE DUP1 SWAP3 SWAP2 SWAP1 DUP2 DUP2 MSTORE PUSH1 0x20 ADD DUP3 DUP1 SLOAD PUSH2 0xB25 SWAP1 PUSH2 0x1479 JUMP JUMPDEST DUP1 ISZERO PUSH2 0xB72 JUMPI DUP1 PUSH1 0x1F LT PUSH2 0xB47 JUMPI PUSH2 0x100 DUP1 DUP4 SLOAD DIV MUL DUP4 MSTORE SWAP2 PUSH1 0x20 ADD SWAP2 PUSH2 0xB72 JUMP JUMPDEST DUP3 ADD SWAP2 SWAP1 PUSH1 0x0 MSTORE PUSH1 0x20 PUSH1 0x0 KECCAK256 SWAP1 JUMPDEST DUP2 SLOAD DUP2 MSTORE SWAP1 PUSH1 0x1 ADD SWAP1 PUSH1 0x20 ADD DUP1 DUP4 GT PUSH2 0xB55 JUMPI DUP3 SWAP1 SUB PUSH1 0x1F AND DUP3 ADD SWAP2 JUMPDEST POP POP POP POP POP SWAP1 DUP1 PUSH1 0x5 ADD DUP1 SLOAD PUSH2 0xB87 SWAP1 PUSH2 0x1479 JUMP JUMPDEST DUP1 PUSH1 0x1F ADD PUSH1 0x20 DUP1 SWAP2 DIV MUL PUSH1 0x20 ADD PUSH1 0x40 MLOAD SWAP1 DUP2 ADD PUSH1 0x40 MSTORE DUP1 SWAP3 SWAP2 SWAP1 DUP2 DUP2 MSTORE PUSH1 0x20 ADD DUP3 DUP1 SLOAD PUSH2 0xBB3 SWAP1 PUSH2 0x1479 JUMP JUMPDEST DUP1 ISZERO PUSH2 0xC00 JUMPI DUP1 PUSH1 0x1F LT PUSH2 0xBD5 JUMPI PUSH2 0x100 DUP1 DUP4 SLOAD DIV MUL DUP4 MSTORE SWAP2 PUSH1 0x20 ADD SWAP2 PUSH2 0xC00 JUMP JUMPDEST DUP3 ADD SWAP2 SWAP1 PUSH1 0x0 MSTORE PUSH1 0x20 PUSH1 0x0 KECCAK256 SWAP1 JUMPDEST DUP2 SLOAD DUP2 MSTORE SWAP1 PUSH1 0x1 ADD SWAP1 PUSH1 0x20 ADD DUP1 DUP4 GT PUSH2 0xBE3 JUMPI DUP3 SWAP1 SUB PUSH1 0x1F AND DUP3 ADD SWAP2 JUMPDEST POP POP POP POP POP SWAP1 DUP1 PUSH1 0x6 ADD DUP1 SLOAD PUSH2 0xC15 SWAP1 PUSH2 0x1479 JUMP JUMPDEST DUP1 PUSH1 0x1F ADD PUSH1 0x20 DUP1 SWAP2 DIV MUL PUSH1 0x20 ADD PUSH1 0x40 MLOAD SWAP1 DUP2 ADD PUSH1 0x40 MSTORE DUP1 SWAP3 SWAP2 SWAP1 DUP2 DUP2 MSTORE PUSH1 0x20 ADD DUP3 DUP1 SLOAD PUSH2 0xC41 SWAP1 PUSH2 0x1479 JUMP JUMPDEST DUP1 ISZERO PUSH2 0xC8E JUMPI DUP1 PUSH1 0x1F LT PUSH2 0xC63 JUMPI PUSH2 0x100 DUP1 DUP4 SLOAD DIV MUL DUP4 MSTORE SWAP2 PUSH1 0x20 ADD SWAP2 PUSH2 0xC8E JUMP JUMPDEST DUP3 ADD SWAP2 SWAP1 PUSH1 0x0 MSTORE PUSH1 0x20 PUSH1 0x0 KECCAK256 SWAP1 JUMPDEST DUP2 SLOAD DUP2 MSTORE SWAP1 PUSH1 0x1 ADD SWAP1 PUSH1 0x20 ADD DUP1 DUP4 GT PUSH2 0xC71 JUMPI DUP3 SWAP1 SUB PUSH1 0x1F AND DUP3 ADD SWAP2 JUMPDEST POP POP POP POP POP SWAP1 DUP1 PUSH1 0x7 ADD DUP1 SLOAD PUSH2 0xCA3 SWAP1 PUSH2 0x1479 JUMP JUMPDEST DUP1 PUSH1 0x1F ADD PUSH1 0x20 DUP1 SWAP2 DIV MUL PUSH1 0x20 ADD PUSH1 0x40 MLOAD SWAP1 DUP2 ADD PUSH1 0x40 MSTORE DUP1 SWAP3 SWAP2 SWAP1 DUP2 DUP2 MSTORE PUSH1 0x20 ADD DUP3 DUP1 SLOAD PUSH2 0xCCF SWAP1 PUSH2 0x1479 JUMP JUMPDEST DUP1 ISZERO PUSH2 0xD1C JUMPI DUP1 PUSH1 0x1F LT PUSH2 0xCF1 JUMPI PUSH2 0x100 DUP1 DUP4 SLOAD DIV MUL DUP4 MSTORE SWAP2 PUSH1 0x20 ADD SWAP2 PUSH2 0xD1C JUMP JUMPDEST DUP3 ADD SWAP2 SWAP1 PUSH1 0x0 MSTORE PUSH1 0x20 PUSH1 0x0 KECCAK256 SWAP1 JUMPDEST DUP2 SLOAD DUP2 MSTORE SWAP1 PUSH1 0x1 ADD SWAP1 PUSH1 0x20 ADD DUP1 DUP4 GT PUSH2 0xCFF JUMPI DUP3 SWAP1 SUB PUSH1 0x1F AND DUP3 ADD SWAP2 JUMPDEST POP POP POP POP POP SWAP1 DUP1 PUSH1 0x8 ADD DUP1 SLOAD PUSH2 0xD31 SWAP1 PUSH2 0x1479 JUMP JUMPDEST DUP1 PUSH1 0x1F ADD PUSH1 0x20 DUP1 SWAP2 DIV MUL PUSH1 0x20 ADD PUSH1 0x40 MLOAD SWAP1 DUP2 ADD PUSH1 0x40 MSTORE DUP1 SWAP3 SWAP2 SWAP1 DUP2 DUP2 MSTORE PUSH1 0x20 ADD DUP3 DUP1 SLOAD PUSH2 0xD5D SWAP1 PUSH2 0x1479 JUMP JUMPDEST DUP1 ISZERO PUSH2 0xDAA JUMPI DUP1 PUSH1 0x1F LT PUSH2 0xD7F JUMPI PUSH2 0x100 DUP1 DUP4 SLOAD DIV MUL DUP4 MSTORE SWAP2 PUSH1 0x20 ADD SWAP2 PUSH2 0xDAA JUMP JUMPDEST DUP3 ADD SWAP2 SWAP1 PUSH1 0x0 MSTORE PUSH1 0x20 PUSH1 0x0 KECCAK256 SWAP1 JUMPDEST DUP2 SLOAD DUP2 MSTORE SWAP1 PUSH1 0x1 ADD SWAP1 PUSH1 0x20 ADD DUP1 DUP4 GT PUSH2 0xD8D JUMPI DUP3 SWAP1 SUB PUSH1 0x1F AND DUP3 ADD SWAP2 JUMPDEST POP POP POP PUSH1 0x9 SWAP1 SWAP4 ADD SLOAD SWAP2 SWAP3 POP POP PUSH1 0x1 PUSH1 0x1 PUSH1 0xA0 SHL SUB DUP2 AND SWAP1 PUSH1 0xFF PUSH1 0x1 PUSH1 0xA0 SHL DUP3 DIV DUP2 AND SWAP2 PUSH1 0x1 PUSH1 0xA8 SHL SWAP1 DIV AND DUP13 JUMP JUMPDEST PUSH1 0x0 PUSH1 0x1 PUSH1 0x1 PUSH1 0xE0 SHL SUB NOT DUP3 AND PUSH4 0x7965DB0B PUSH1 0xE0 SHL EQ DUP1 PUSH2 0x287 JUMPI POP PUSH4 0x1FFC9A7 PUSH1 0xE0 SHL PUSH1 0x1 PUSH1 0x1 PUSH1 0xE0 SHL SUB NOT DUP4 AND EQ PUSH2 0x287 JUMP JUMPDEST PUSH2 0xE18 DUP2 CALLER PUSH2 0xF18 JUMP JUMPDEST POP JUMP JUMPDEST PUSH1 0x0 PUSH2 0xE27 DUP4 DUP4 PUSH2 0x790 JUMP JUMPDEST PUSH2 0xEA5 JUMPI PUSH1 0x0 DUP4 DUP2 MSTORE PUSH1 0x20 DUP2 DUP2 MSTORE PUSH1 0x40 DUP1 DUP4 KECCAK256 PUSH1 0x1 PUSH1 0x1 PUSH1 0xA0 SHL SUB DUP7 AND DUP5 MSTORE SWAP1 SWAP2 MSTORE SWAP1 KECCAK256 DUP1 SLOAD PUSH1 0xFF NOT AND PUSH1 0x1 OR SWAP1 SSTORE PUSH2 0xE5D CALLER SWAP1 JUMP JUMPDEST PUSH1 0x1 PUSH1 0x1 PUSH1 0xA0 SHL SUB AND DUP3 PUSH1 0x1 PUSH1 0x1 PUSH1 0xA0 SHL SUB AND DUP5 PUSH32 0x2F8788117E7EFF1D82E926EC794901D17C78024A50270940304540A733656F0D PUSH1 0x40 MLOAD PUSH1 0x40 MLOAD DUP1 SWAP2 SUB SWAP1 LOG4 POP PUSH1 0x1 PUSH2 0x287 JUMP JUMPDEST POP PUSH1 0x0 PUSH2 0x287 JUMP JUMPDEST PUSH1 0x0 PUSH2 0xEB9 DUP4 DUP4 PUSH2 0x790 JUMP JUMPDEST ISZERO PUSH2 0xEA5 JUMPI PUSH1 0x0 DUP4 DUP2 MSTORE PUSH1 0x20 DUP2 DUP2 MSTORE PUSH1 0x40 DUP1 DUP4 KECCAK256 PUSH1 0x1 PUSH1 0x1 PUSH1 0xA0 SHL SUB DUP7 AND DUP1 DUP6 MSTORE SWAP3 MSTORE DUP1 DUP4 KECCAK256 DUP1 SLOAD PUSH1 0xFF NOT AND SWAP1 SSTORE MLOAD CALLER SWAP3 DUP7 SWAP2 PUSH32 0xF6391F5C32D9C69D2A47EA670B442974B53935D1EDC7FD64EB21E047A839171B SWAP2 SWAP1 LOG4 POP PUSH1 0x1 PUSH2 0x287 JUMP JUMPDEST PUSH2 0xF22 DUP3 DUP3 PUSH2 0x790 JUMP JUMPDEST PUSH2 0xF51 JUMPI PUSH1 0x40 MLOAD PUSH4 0xE2517D3F PUSH1 0xE0 SHL DUP2 MSTORE PUSH1 0x1 PUSH1 0x1 PUSH1 0xA0 SHL SUB DUP3 AND PUSH1 0x4 DUP3 ADD MSTORE PUSH1 0x24 DUP2 ADD DUP4 SWAP1 MSTORE PUSH1 0x44 ADD PUSH2 0x313 JUMP JUMPDEST POP POP JUMP JUMPDEST PUSH1 0x0 PUSH1 0x20 DUP3 DUP5 SUB SLT ISZERO PUSH2 0xF67 JUMPI PUSH1 0x0 DUP1 REVERT JUMPDEST DUP2 CALLDATALOAD PUSH1 0x1 PUSH1 0x1 PUSH1 0xE0 SHL SUB NOT DUP2 AND DUP2 EQ PUSH2 0xF7F JUMPI PUSH1 0x0 DUP1 REVERT JUMPDEST SWAP4 SWAP3 POP POP POP JUMP JUMPDEST PUSH4 0x4E487B71 PUSH1 0xE0 SHL PUSH1 0x0 MSTORE PUSH1 0x41 PUSH1 0x4 MSTORE PUSH1 0x24 PUSH1 0x0 REVERT JUMPDEST PUSH1 0x0 DUP3 PUSH1 0x1F DUP4 ADD SLT PUSH2 0xFAD JUMPI PUSH1 0x0 DUP1 REVERT JUMPDEST DUP2 CALLDATALOAD PUSH8 0xFFFFFFFFFFFFFFFF DUP1 DUP3 GT ISZERO PUSH2 0xFC8 JUMPI PUSH2 0xFC8 PUSH2 0xF86 JUMP JUMPDEST PUSH1 0x40 MLOAD PUSH1 0x1F DUP4 ADD PUSH1 0x1F NOT SWAP1 DUP2 AND PUSH1 0x3F ADD AND DUP2 ADD SWAP1 DUP3 DUP3 GT DUP2 DUP4 LT OR ISZERO PUSH2 0xFF0 JUMPI PUSH2 0xFF0 PUSH2 0xF86 JUMP JUMPDEST DUP2 PUSH1 0x40 MSTORE DUP4 DUP2 MSTORE DUP7 PUSH1 0x20 DUP6 DUP9 ADD ADD GT ISZERO PUSH2 0x1009 JUMPI PUSH1 0x0 DUP1 REVERT JUMPDEST DUP4 PUSH1 0x20 DUP8 ADD PUSH1 0x20 DUP4 ADD CALLDATACOPY PUSH1 0x0 PUSH1 0x20 DUP6 DUP4 ADD ADD MSTORE DUP1 SWAP5 POP POP POP POP POP SWAP3 SWAP2 POP POP JUMP JUMPDEST DUP1 CALLDATALOAD PUSH1 0x1 PUSH1 0x1 PUSH1 0xA0 SHL SUB DUP2 AND DUP2 EQ PUSH2 0x1040 JUMPI PUSH1 0x0 DUP1 REVERT JUMPDEST SWAP2 SWAP1 POP JUMP JUMPDEST PUSH1 0x0 DUP1 PUSH1 0x0 DUP1 PUSH1 0x0 DUP1 PUSH1 0x0 DUP1 PUSH1 0x0 PUSH2 0x120 DUP11 DUP13 SUB SLT ISZERO PUSH2 0x1064 JUMPI PUSH1 0x0 DUP1 REVERT JUMPDEST DUP10 CALLDATALOAD PUSH8 0xFFFFFFFFFFFFFFFF DUP1 DUP3 GT ISZERO PUSH2 0x107C JUMPI PUSH1 0x0 DUP1 REVERT JUMPDEST PUSH2 0x1088 DUP14 DUP4 DUP15 ADD PUSH2 0xF9C JUMP JUMPDEST SWAP11 POP PUSH1 0x20 DUP13 ADD CALLDATALOAD SWAP2 POP DUP1 DUP3 GT ISZERO PUSH2 0x109E JUMPI PUSH1 0x0 DUP1 REVERT JUMPDEST PUSH2 0x10AA DUP14 DUP4 DUP15 ADD PUSH2 0xF9C JUMP JUMPDEST SWAP10 POP PUSH1 0x40 DUP13 ADD CALLDATALOAD SWAP2 POP DUP1 DUP3 GT ISZERO PUSH2 0x10C0 JUMPI PUSH1 0x0 DUP1 REVERT JUMPDEST PUSH2 0x10CC DUP14 DUP4 DUP15 ADD PUSH2 0xF9C JUMP JUMPDEST SWAP9 POP PUSH1 0x60 DUP13 ADD CALLDATALOAD SWAP2 POP DUP1 DUP3 GT ISZERO PUSH2 0x10E2 JUMPI PUSH1 0x0 DUP1 REVERT JUMPDEST PUSH2 0x10EE DUP14 DUP4 DUP15 ADD PUSH2 0xF9C JUMP JUMPDEST SWAP8 POP PUSH1 0x80 DUP13 ADD CALLDATALOAD SWAP2 POP DUP1 DUP3 GT ISZERO PUSH2 0x1104 JUMPI PUSH1 0x0 DUP1 REVERT JUMPDEST PUSH2 0x1110 DUP14 DUP4 DUP15 ADD PUSH2 0xF9C JUMP JUMPDEST SWAP7 POP PUSH1 0xA0 DUP13 ADD CALLDATALOAD SWAP2 POP DUP1 DUP3 GT ISZERO PUSH2 0x1126 JUMPI PUSH1 0x0 DUP1 REVERT JUMPDEST PUSH2 0x1132 DUP14 DUP4 DUP15 ADD PUSH2 0xF9C JUMP JUMPDEST SWAP6 POP PUSH1 0xC0 DUP13 ADD CALLDATALOAD SWAP2 POP DUP1 DUP3 GT ISZERO PUSH2 0x1148 JUMPI PUSH1 0x0 DUP1 REVERT JUMPDEST PUSH2 0x1154 DUP14 DUP4 DUP15 ADD PUSH2 0xF9C JUMP JUMPDEST SWAP5 POP PUSH1 0xE0 DUP13 ADD CALLDATALOAD SWAP2 POP DUP1 DUP3 GT ISZERO PUSH2 0x116A JUMPI PUSH1 0x0 DUP1 REVERT JUMPDEST POP PUSH2 0x1177 DUP13 DUP3 DUP14 ADD PUSH2 0xF9C JUMP JUMPDEST SWAP3 POP POP PUSH2 0x1187 PUSH2 0x100 DUP12 ADD PUSH2 0x1029 JUMP JUMPDEST SWAP1 POP SWAP3 SWAP6 SWAP9 POP SWAP3 SWAP6 SWAP9 POP SWAP3 SWAP6 SWAP9 JUMP JUMPDEST PUSH1 0x0 PUSH1 0x20 DUP3 DUP5 SUB SLT ISZERO PUSH2 0x11A8 JUMPI PUSH1 0x0 DUP1 REVERT JUMPDEST POP CALLDATALOAD SWAP2 SWAP1 POP JUMP JUMPDEST PUSH1 0x0 DUP1 PUSH1 0x40 DUP4 DUP6 SUB SLT ISZERO PUSH2 0x11C2 JUMPI PUSH1 0x0 DUP1 REVERT JUMPDEST DUP3 CALLDATALOAD SWAP2 POP PUSH2 0x11D2 PUSH1 0x20 DUP5 ADD PUSH2 0x1029 JUMP JUMPDEST SWAP1 POP SWAP3 POP SWAP3 SWAP1 POP JUMP JUMPDEST PUSH1 0x0 DUP1 PUSH1 0x40 DUP4 DUP6 SUB SLT ISZERO PUSH2 0x11EE JUMPI PUSH1 0x0 DUP1 REVERT JUMPDEST DUP3 CALLDATALOAD PUSH8 0xFFFFFFFFFFFFFFFF DUP1 DUP3 GT ISZERO PUSH2 0x1206 JUMPI PUSH1 0x0 DUP1 REVERT JUMPDEST PUSH2 0x1212 DUP7 DUP4 DUP8 ADD PUSH2 0xF9C JUMP JUMPDEST SWAP4 POP PUSH1 0x20 DUP6 ADD CALLDATALOAD SWAP2 POP DUP1 DUP3 GT ISZERO PUSH2 0x1228 JUMPI PUSH1 0x0 DUP1 REVERT JUMPDEST POP PUSH2 0x1235 DUP6 DUP3 DUP7 ADD PUSH2 0xF9C JUMP JUMPDEST SWAP2 POP POP SWAP3 POP SWAP3 SWAP1 POP JUMP JUMPDEST PUSH1 0x0 PUSH1 0x20 DUP3 DUP5 SUB SLT ISZERO PUSH2 0x1251 JUMPI PUSH1 0x0 DUP1 REVERT JUMPDEST DUP2 CALLDATALOAD PUSH8 0xFFFFFFFFFFFFFFFF DUP2 GT ISZERO PUSH2 0x1268 JUMPI PUSH1 0x0 DUP1 REVERT JUMPDEST PUSH2 0x1274 DUP5 DUP3 DUP6 ADD PUSH2 0xF9C JUMP JUMPDEST SWAP5 SWAP4 POP POP POP POP JUMP JUMPDEST PUSH1 0x0 JUMPDEST DUP4 DUP2 LT ISZERO PUSH2 0x1297 JUMPI DUP2 DUP2 ADD MLOAD DUP4 DUP3 ADD MSTORE PUSH1 0x20 ADD PUSH2 0x127F JUMP JUMPDEST POP POP PUSH1 0x0 SWAP2 ADD MSTORE JUMP JUMPDEST PUSH1 0x0 DUP2 MLOAD DUP1 DUP5 MSTORE PUSH2 0x12B8 DUP2 PUSH1 0x20 DUP7 ADD PUSH1 0x20 DUP7 ADD PUSH2 0x127C JUMP JUMPDEST PUSH1 0x1F ADD PUSH1 0x1F NOT AND SWAP3 SWAP1 SWAP3 ADD PUSH1 0x20 ADD SWAP3 SWAP2 POP POP JUMP JUMPDEST PUSH1 0x20 DUP2 MSTORE PUSH1 0x0 PUSH2 0xF7F PUSH1 0x20 DUP4 ADD DUP5 PUSH2 0x12A0 JUMP JUMPDEST PUSH1 0x0 DUP1 PUSH1 0x40 DUP4 DUP6 SUB SLT ISZERO PUSH2 0x12F2 JUMPI PUSH1 0x0 DUP1 REVERT JUMPDEST DUP3 CALLDATALOAD PUSH8 0xFFFFFFFFFFFFFFFF DUP2 GT ISZERO PUSH2 0x1309 JUMPI PUSH1 0x0 DUP1 REVERT JUMPDEST PUSH2 0x1315 DUP6 DUP3 DUP7 ADD PUSH2 0xF9C JUMP JUMPDEST SWAP3 POP POP PUSH1 0x20 DUP4 ADD CALLDATALOAD PUSH1 0x4 DUP2 LT PUSH2 0x132A JUMPI PUSH1 0x0 DUP1 REVERT JUMPDEST DUP1 SWAP2 POP POP SWAP3 POP SWAP3 SWAP1 POP JUMP JUMPDEST PUSH4 0x4E487B71 PUSH1 0xE0 SHL PUSH1 0x0 MSTORE PUSH1 0x21 PUSH1 0x4 MSTORE PUSH1 0x24 PUSH1 0x0 REVERT JUMPDEST PUSH1 0x4 DUP2 LT PUSH2 0x1369 JUMPI PUSH4 0x4E487B71 PUSH1 0xE0 SHL PUSH1 0x0 MSTORE PUSH1 0x21 PUSH1 0x4 MSTORE PUSH1 0x24 PUSH1 0x0 REVERT JUMPDEST SWAP1 MSTORE JUMP JUMPDEST PUSH2 0x180 DUP2 MSTORE PUSH1 0x0 PUSH2 0x1382 PUSH2 0x180 DUP4 ADD DUP16 PUSH2 0x12A0 JUMP JUMPDEST PUSH1 0x1 PUSH1 0x1 PUSH1 0xA0 SHL SUB DUP15 AND PUSH1 0x20 DUP5 ADD MSTORE DUP3 DUP2 SUB PUSH1 0x40 DUP5 ADD MSTORE PUSH2 0x13A3 DUP2 DUP15 PUSH2 0x12A0 JUMP JUMPDEST SWAP1 POP DUP3 DUP2 SUB PUSH1 0x60 DUP5 ADD MSTORE PUSH2 0x13B7 DUP2 DUP14 PUSH2 0x12A0 JUMP JUMPDEST SWAP1 POP DUP3 DUP2 SUB PUSH1 0x80 DUP5 ADD MSTORE PUSH2 0x13CB DUP2 DUP13 PUSH2 0x12A0 JUMP JUMPDEST SWAP1 POP DUP3 DUP2 SUB PUSH1 0xA0 DUP5 ADD MSTORE PUSH2 0x13DF DUP2 DUP12 PUSH2 0x12A0 JUMP JUMPDEST SWAP1 POP DUP3 DUP2 SUB PUSH1 0xC0 DUP5 ADD MSTORE PUSH2 0x13F3 DUP2 DUP11 PUSH2 0x12A0 JUMP JUMPDEST SWAP1 POP DUP3 DUP2 SUB PUSH1 0xE0 DUP5 ADD MSTORE PUSH2 0x1407 DUP2 DUP10 PUSH2 0x12A0 JUMP JUMPDEST SWAP1 POP DUP3 DUP2 SUB PUSH2 0x100 DUP5 ADD MSTORE PUSH2 0x141C DUP2 DUP9 PUSH2 0x12A0 JUMP JUMPDEST SWAP2 POP POP PUSH2 0x1435 PUSH2 0x120 DUP4 ADD DUP7 PUSH1 0x1 PUSH1 0x1 PUSH1 0xA0 SHL SUB AND SWAP1 MSTORE JUMP JUMPDEST PUSH2 0x1443 PUSH2 0x140 DUP4 ADD DUP6 PUSH2 0x134B JUMP JUMPDEST DUP3 ISZERO ISZERO PUSH2 0x160 DUP4 ADD MSTORE SWAP14 SWAP13 POP POP POP POP POP POP POP POP POP POP POP POP POP JUMP JUMPDEST PUSH1 0x0 DUP3 MLOAD PUSH2 0x146F DUP2 DUP5 PUSH1 0x20 DUP8 ADD PUSH2 0x127C JUMP JUMPDEST SWAP2 SWAP1 SWAP2 ADD SWAP3 SWAP2 POP POP JUMP JUMPDEST PUSH1 0x1 DUP2 DUP2 SHR SWAP1 DUP3 AND DUP1 PUSH2 0x148D JUMPI PUSH1 0x7F DUP3 AND SWAP2 POP JUMPDEST PUSH1 0x20 DUP3 LT DUP2 SUB PUSH2 0x14AD JUMPI PUSH4 0x4E487B71 PUSH1 0xE0 SHL PUSH1 0x0 MSTORE PUSH1 0x22 PUSH1 0x4 MSTORE PUSH1 0x24 PUSH1 0x0 REVERT JUMPDEST POP SWAP2 SWAP1 POP JUMP JUMPDEST PUSH1 0x1F DUP3 GT ISZERO PUSH2 0x5EA JUMPI PUSH1 0x0 DUP2 DUP2 MSTORE PUSH1 0x20 DUP2 KECCAK256 PUSH1 0x1F DUP6 ADD PUSH1 0x5 SHR DUP2 ADD PUSH1 0x20 DUP7 LT ISZERO PUSH2 0x14DA JUMPI POP DUP1 JUMPDEST PUSH1 0x1F DUP6 ADD PUSH1 0x5 SHR DUP3 ADD SWAP2 POP JUMPDEST DUP2 DUP2 LT ISZERO PUSH2 0x14F9 JUMPI DUP3 DUP2 SSTORE PUSH1 0x1 ADD PUSH2 0x14E6 JUMP JUMPDEST POP POP POP POP POP POP JUMP JUMPDEST DUP2 MLOAD PUSH8 0xFFFFFFFFFFFFFFFF DUP2 GT ISZERO PUSH2 0x151B JUMPI PUSH2 0x151B PUSH2 0xF86 JUMP JUMPDEST PUSH2 0x152F DUP2 PUSH2 0x1529 DUP5 SLOAD PUSH2 0x1479 JUMP JUMPDEST DUP5 PUSH2 0x14B3 JUMP JUMPDEST PUSH1 0x20 DUP1 PUSH1 0x1F DUP4 GT PUSH1 0x1 DUP2 EQ PUSH2 0x1564 JUMPI PUSH1 0x0 DUP5 ISZERO PUSH2 0x154C JUMPI POP DUP6 DUP4 ADD MLOAD JUMPDEST PUSH1 0x0 NOT PUSH1 0x3 DUP7 SWAP1 SHL SHR NOT AND PUSH1 0x1 DUP6 SWAP1 SHL OR DUP6 SSTORE PUSH2 0x14F9 JUMP JUMPDEST PUSH1 0x0 DUP6 DUP2 MSTORE PUSH1 0x20 DUP2 KECCAK256 PUSH1 0x1F NOT DUP7 AND SWAP2 JUMPDEST DUP3 DUP2 LT ISZERO PUSH2 0x1593 JUMPI DUP9 DUP7 ADD MLOAD DUP3 SSTORE SWAP5 DUP5 ADD SWAP5 PUSH1 0x1 SWAP1 SWAP2 ADD SWAP1 DUP5 ADD PUSH2 0x1574 JUMP JUMPDEST POP DUP6 DUP3 LT ISZERO PUSH2 0x15B1 JUMPI DUP8 DUP6 ADD MLOAD PUSH1 0x0 NOT PUSH1 0x3 DUP9 SWAP1 SHL PUSH1 0xF8 AND SHR NOT AND DUP2 SSTORE JUMPDEST POP POP POP POP POP PUSH1 0x1 SWAP1 DUP2 SHL ADD SWAP1 SSTORE POP JUMP JUMPDEST PUSH1 0x0 PUSH2 0x120 DUP1 DUP4 MSTORE PUSH2 0x15D5 DUP2 DUP5 ADD DUP14 PUSH2 0x12A0 JUMP JUMPDEST SWAP1 POP DUP3 DUP2 SUB PUSH1 0x20 DUP5 ADD MSTORE PUSH2 0x15E9 DUP2 DUP13 PUSH2 0x12A0 JUMP JUMPDEST SWAP1 POP DUP3 DUP2 SUB PUSH1 0x40 DUP5 ADD MSTORE PUSH2 0x15FD DUP2 DUP12 PUSH2 0x12A0 JUMP JUMPDEST SWAP1 POP DUP3 DUP2 SUB PUSH1 0x60 DUP5 ADD MSTORE PUSH2 0x1611 DUP2 DUP11 PUSH2 0x12A0 JUMP JUMPDEST SWAP1 POP DUP3 DUP2 SUB PUSH1 0x80 DUP5 ADD MSTORE PUSH2 0x1625 DUP2 DUP10 PUSH2 0x12A0 JUMP JUMPDEST SWAP1 POP DUP3 DUP2 SUB PUSH1 0xA0 DUP5 ADD MSTORE PUSH2 0x1639 DUP2 DUP9 PUSH2 0x12A0 JUMP JUMPDEST SWAP1 POP DUP3 DUP2 SUB PUSH1 0xC0 DUP5 ADD MSTORE PUSH2 0x164D DUP2 DUP8 PUSH2 0x12A0 JUMP JUMPDEST SWAP1 POP DUP3 DUP2 SUB PUSH1 0xE0 DUP5 ADD MSTORE PUSH2 0x1661 DUP2 DUP7 PUSH2 0x12A0 JUMP JUMPDEST SWAP2 POP POP PUSH1 0x1 DUP1 PUSH1 0xA0 SHL SUB DUP4 AND PUSH2 0x100 DUP4 ADD MSTORE SWAP11 SWAP10 POP POP POP POP POP POP POP POP POP POP JUMP JUMPDEST PUSH1 0x40 DUP2 MSTORE PUSH1 0x0 PUSH2 0x1694 PUSH1 0x40 DUP4 ADD DUP6 PUSH2 0x12A0 JUMP JUMPDEST DUP3 DUP2 SUB PUSH1 0x20 DUP5 ADD MSTORE PUSH2 0x16A6 DUP2 DUP6 PUSH2 0x12A0 JUMP JUMPDEST SWAP6 SWAP5 POP POP POP POP POP JUMP JUMPDEST PUSH1 0x40 DUP2 MSTORE PUSH1 0x0 PUSH2 0x16C2 PUSH1 0x40 DUP4 ADD DUP6 PUSH2 0x12A0 JUMP JUMPDEST SWAP1 POP PUSH2 0xF7F PUSH1 0x20 DUP4 ADD DUP5 PUSH2 0x134B JUMP INVALID SWAP8 PUSH7 0x7070C54EF182B0 CREATE2 DUP6 DUP12 SUB 0x4B 0xEA 0xC1 0xB6 RETURN ADDMOD SWAP11 LOG2 0xD3 XOR DUP12 0xB1 0xE8 SWAP3 SWAP16 0x4F 0xA9 0xB9 0x29 LOG2 PUSH5 0x6970667358 0x22 SLT KECCAK256 DUP5 0xBB EXTCODEHASH 0xB0 SWAP7 CODESIZE PUSH4 0x50BC8071 PUSH24 0x3DF8D651575A99A6A90482812EF42276D6819A9E64736F6C PUSH4 0x43000814 STOP CALLER "},"methodIdentifiers":{"ADMIN_ROLE()":"75b238fc","DEFAULT_ADMIN_ROLE()":"a217fddf","OPERATOR_ROLE()":"f5b541a6","checkpoint(string)":"6697a925","createCheckpoint(string,string)":"5b5bf994","getRoleAdmin(bytes32)":"248a9ca3","grantRole(bytes32,address)":"2f2ff15d","hasRole(bytes32,address)":"91d14854","nodeIds(uint256)":"98543166","nodes(string)":"f5417ca2","registerNode(string,string,string,string,string,string,string,string,address)":"1b82fd1e","renounceRole(bytes32,address)":"36568abe","revokeRole(bytes32,address)":"d547741f","supportsInterface(bytes4)":"01ffc9a7","updateNodeStatus(string,uint8)":"ca046c62"}}}}}